:020000040000FA
:020000002828AE
:040002000034003492
:08000800C400030EC5008C10BA
:100010000108C100C00203191E28031C1128C203D5
:100020001228C20A4208C300C31F1828C309C30A02
:100030000330C302031C202816172028C201161300
:100040004108C0008101450E8300C40E440E090022
:10005000403084008001840A841F2A288801061009
:10006000091128308E007B3093006F30920003100E
:10007000120C950094019617161713158D14C030A5
:040080008B00412888
:02400E00E73F8A
:00000001FF
